:020000040800F2
:1000000098090020D5000008352C0008AD2A00080A
:1000100000000000000000000000000000000000E0
:10002000000000000000000000000000392C000863
:100030000000000000000000372C00083B2C0008E6
:10004000000000000000000000000000E7000008C1
:10005000E7000008E7000008E7000008E7000008E4
:100060000000000000000000000000000000000090
:10007000B10A0008BD2C0008E700000800000000DD
:1000800000000000E700000800000000E700000892
:10009000000000000000000000000000E700000871
:1000A00000000000E700000800000000952D000897
:1000B0000000000000000000000000000000000040
:1000C0000348854600F0A8FC004800473538000882
:1000D000980900200448804704480047FEE7FEE7EF
:1000E000FEE7FEE7FEE7FEE7452C0008C10000083A
:1000F0000549064A08685043054A801808604008C8
:100100007047014908607047000000206D4EC641ED
:1001100039300000D2B201E00270401C491EFBD20F
:1001200070470022F6E710B513460A460446194602
:10013000FFF7F0FF204610BDF8B502464A40D40F45
:1001400042004B0052085B089A4202D2024608461F
:1001500011464A0023D0C30D4A00DDB2120EAD1A7B
:10016000202D35DA49020126490AF6058A19002CA4
:1001700000D0524220214F1B1146B9402A4110188D
:10018000C20D9A4221D0002C17D0012D08DCDA05CF
:10019000801AD20F8019D207DBB200F02BFAF8BD1B
:1001A000DA05801A012340001B06C01880185A4245
:1001B0008018CA0F1043490007E04908C2071143DD
:1001C000DA05801A80194008801800F00BFAF8BD93
:1001D00061000122511A001BF7E70122D2075140AA
:1001E000AAE70122D2075040A6E7024670B54A406E
:1001F000D30FDB0740002DD04A002AD0010E140E89
:10020000000212020919400A520A8418E501044644
:100210005443000A120A2E045043A4194219200C18
:10022000C543AA18120C0125AD03521C5219120421
:100230007F39240400D0521C104301D44000491ED1
:10024000C2B20C06C0092018401C4008802A02D007
:1002500003E0002070BD40084000002900DA0020C3
:10026000184370BD70B502464A40D50F40004A00A1
:10027000ED0740085208002814D0002A12D0C40DFF
:10028000D30D41020120C0055202490A520AE41A64
:10029000091812187D34914201D3641C00E0490012
:1002A000002C01DA002070BD0023914201D3891A8D
:1002B0000343400849000028F7D100290AD09142A1
:1002C00002D10121C90705E0914201D2012101E0DB
:1002D0000121C943E005C018401900F083F970BD41
:1002E000F0B50C465C4085B0E40FE40703944C0085
:1002F00000266408590094464908024602962243A3
:1003000021D062460A431ED06200570D4A000E03F8
:100310002303550D012402462C492405781B1B0B91
:10032000360B401823432643614600901C46501A62
:10033000B44103D30098401C009002E0921800984A
:100340005B41002803DA0020014605B0F0BD002023
:10035000012109050746864611E064461D46141B27
:10036000B54106D36546521BB341744607430C435F
:10037000A646CD0740084908284392185B41054628
:100380000D43EAD11046184313D060461946504039
:100390007140084306D06046101AB34106D20122CC
:1003A000002306E000220123DB0702E00122D24302
:1003B0005310009874460105381C6141029C039D4E
:1003C0000019694100F07BF9BFE70000FD03000060
:1003D0000122D207002800DB101A002900DB511A85
:1003E000814201D801207047002070470122D207C6
:1003F000002800DB101A002900DB511A814201D2CB
:1004000001207047002070470122D207002800DB3E
:10041000101A002900DB511A814201D301207047D4
:10042000002070470122D207002800DB101A0029A3
:1004300000DB511A814201D901207047002070472A
:10044000C217C10F504010B54018CA0796230021AB
:1004500000F0D0F810BD10B500229623114600F030
:10046000C9F810BD0EB5C217C10F5040CA074018D9
:100470000021054B0293019200910A460B4600F0C1
:100480002BF903B000BD000033040000C20F41008F
:1004900040020123400ADB05D207090EC0187F295C
:1004A00001DA00207047962903DC9623591AC840C8
:1004B00001E096398840002AF4D040427047CB0FC3
:1004C000DB07490010B5490802460A4307D00A0D68
:1004D00007240903E401090B121B002A01DC002098
:1004E00010BDC900440F0C43C100E018D2058018AC
:1004F00000F078F810BD70B50446002903D0002044
:100500002022012310E0002801D00020C043C04673
:10051000C0460DE02546D5408D4205D30D46954099
:10052000641B1D46954040191546521E002DF1DCF6
:10053000214670BD70B5002504462E46002911D015
:10054000002C01DA01254442002901DA0126494242
:100550002046FFF7D0FFB54200D04042002D00D02A
:10056000494270BD002C02DA0121C90702E0002CCB
:1005700000DD03490846C046C046214670BD000064
:10058000FFFFFF7FF0B51FB40646002082B005468E
:100590004024019100901BE0019922460F4630460D
:1005A00000F062FA049A059B801A994110D3104614
:1005B0001946224600F048FA361A8F410197224622
:1005C00001200021009F00F03FFA38184D410090B3
:1005D0002046641E0028DFDC019B00982946324635
:1005E00007B0F0BD002904DA401C490001D14008E1
:1005F0004000704770B40024050C05D1102400049D
:1006000002D1002921D01124050E01D100020834A5
:10061000050F01D10001241D850F01D18000A41C0C
:10062000002801DB4000641C002908D020252E1B77
:100630000D46F540A14000D00121294308430106A1
:100640001B1B000ADB1D02D5002070BC7047DB05B8
:10065000181880180029F8DA401C4900F5D170BC40
:1006600040084000704770B5002801DC002070BDD4
:10067000410040020126400AF605090E8019CA070A
:1006800001D14000491E4D10002211463F3533462E
:10069000CB409B18D418844201D8001B1A46400056
:1006A000491C1729F3DD5100814202D20021C943C0
:1006B00000E00021E8058018FFF794FF70BD10B539
:1006C000002B08DA0024401C614192185B411A4358
:1006D00001D14008400010BDF0B51FB482B00546FE
:1006E0000C0003D0084603F071FC02E003F06EFC3E
:1006F0002030024600902146284600F0A5F9049BD0
:10070000059A04460F4618431143084314D018466F
:1007100010431BD0009840210A1A1846059900F092
:10072000A3F905460E46009A0599049800F08CF945
:10073000084305D0012004E02046394607B0F0BD4B
:100740000020C11705430E432C43374300990E98F0
:100750006305401A7905E40A00220C43FD0A0A30B9
:1007600002D500200146E9E70105101969410C9CFA
:100770000D9D00196941FFF7A2FFDFE7F0B50746BD
:100780000846584087B0C00F049048000E465900F4
:1007900040084908BC1A884105D2384631461E46F1
:1007A00017460B4602465800400810434CD0300D07
:1007B000039040055900400D490D0590401A0290E4
:1007C000402872DA18030121000B09050843019043
:1007D00004980092002805D00199524200208841D7
:1007E00000920190029840210A1A0199009800F0A5
:1007F0002BF905460C466B4607CB00F046F9C019AD
:100800007141039A0E0D0023D71756401A467A40BD
:10081000164344D0049A002A2DD0029A012A039A42
:1008200015DC1205C01A914101263605001C7141E4
:10083000D20F059ED2070093019202962A462346C4
:10084000FFF74AFF07B0F0BD38463146FAE7160514
:10085000224A0F46B218C01AB74101210905001CEF
:100860004F4100187F41114618187941E20F10439B
:100870006D19644113E0E2076D0815436408C2076F
:100880001443039A01261205C01A91413605001C33
:100890007141CE07400830434908C01851412A46EB
:1008A0002346FFF70CFFCDE7FFE704980122400045
:1008B000C117121A00238B4104983146C417381A05
:1008C000A141EEE730B40124E407634030BC55E7B2
:1008D00030B40124E407614030BC4FE70000E0FF82
:1008E000F0B51FB488B00B990998002448400999C5
:1008F000C00F490049080991C0070B9900904900B1
:1009000049080B9109990898A64608431CD00B99F1
:100910000A98084318D0099801244000420D480065
:10092000410D099824050003000B204309900B9802
:100930000003000B20430B9050181C494018002264
:1009400001901446104605E0002001460DB0F0BDB0
:10095000032801DA034600E003239C46C11A0AAECD
:100960000AE05F0008ADED5B4F00F75B7D430027B9
:10097000AA187C41491C5B1E6145F2DD410004ABB5
:100980005A522104120C0A43240C401C0828DFDBB5
:10099000019802900099704601910090059B049A7D
:1009A00007990698FFF798FED0E700000DFCFFFFBF
:1009B0004A0009030123090B1B0519430A4B10B513
:1009C000520D9A4202DA0020014610BD064B343324
:1009D0009A4203DC9A1A00F047F810BD034BD21874
:1009E00000F032F810BD0000FF030000CDFBFFFF58
:1009F00010B5002904DB0124E40740428C41214664
:100A0000002B04DB1C460123DB075242A341994221
:100A100000D1904210BD00001CB509480090094863
:100A2000019005460126009C05E0E36807CC3343AE
:100A30000C3C98471034AC42F7D3FFF745FB00005D
:100A4000844A0008A44A000810B5202A04DB0146A5
:100A5000203A9140002010BD914020239C1A03466B
:100A6000E3401943904010BD10B5202A04DB08462E
:100A7000203AD040002110BD0B46D340D040202466
:100A8000A21A91400843194610BD10B5202A06DB72
:100A9000CB170846203A1041C1170B4306E00B461E
:100AA0001341D0402024A21A91400843194610BD9A
:100AB00070470000B0B58EB001F00CFB00240A9422
:100AC00001252802099002200590114800880B900A
:100AD00005A801F069FCA803049003940294072080
:100AE000019001A8214601F061FB00F015F801F02A
:100AF000DFFF00F085F8E120400202F06FF902F01C
:100B000005F8282002F092FF00F094F80EB0B0BD76
:100B10000001FF1FFEE70000F0B58BB000240A942F
:100B200009940894079406943248016804220492B8
:100B30001143016001681140059105990168022285
:100B40001143016001681140039205910599016804
:100B50000125294301600068284005900598032776
:100B60000997089507950692234806AE314600F08E
:100B7000A1FC099708950795049806901F4F3846E1
:100B8000314600F097FC0994089507958020029063
:100B900006903846314600F08DFC0994089507957B
:100BA000402001900690052007073846314600F0A6
:100BB00081FC114803992A4600F032FD0F4E304661
:100BC0000499224600F02CFD384601992A4600F08F
:100BD00027FD3046029F3946224600F021FDC820FD
:100BE00000F0DCF9304639462A4600F019FD0BB01A
:100BF000F0BDC04634100240000800500004005010
:100C000080B50A4800210A4AEE230CC00160416009
:100C10008160C1600161083801F0BAFD002800D090
:100C2000FEE7024801F012FE80BDC046D801002058
:100C3000002C0140F0B583B05E4A10685E4B18701E
:100C4000C0B25E4C5E4F02282BD05FA003F040FE86
:100C50000220594908704026A54A2046314600F036
:100C6000C3F86425284600F099F95B4A38463146B6
:100C700000F0BAF8284600F091F94F4801784D4845
:100C800000F042F9284600F089F95448012101702A
:100C900001784C4800F038F9284600F07FF9464BBF
:100CA000444A2068924D0290286060680190686014
:100CB000A0680090A860E668EE602069286160691D
:100CC0006861A069A861E069E861206A2862606AD9
:100CD0006862A06AA862E06AE862206B2863606BC1
:100CE0006863A06BA863E06BE86339683A48016009
:100CF00079684160B9688160F968C16039690161EA
:100D000079694161B9698161F969C161396A0162D1
:100D1000796A4162B96A8162F96AC162396B0163B9
:100D2000796B4163B96B8163F96BC16310681870AB
:100D3000244800682949087029493046FFF756FBC6
:100D4000044628493046FFF7F7F90026002C3146C3
:100D500000D10146E960009F38462149FFF746FB74
:100D6000044638461F49FFF7E7F9002C314600D109
:100D70000146A960019F38461949FFF737FB044631
:100D800038461849FFF7D8F9002C314600D1014602
:100D90006960029F38461249FFF728FB044638462F
:100DA0001049FFF7C9F9002C00D106462E6003B0A8
:100DB000F0BDC04600510008D401002000500008DA
:100DC00080500008805100084D43555F466C6173A8
:100DD0006820496E69740D00240000204E05002033
:100DE00000002041000020C1F0B58DB015460F462F
:100DF00006463B4CA06806903A48A060204601F0A9
:100E000037F93948864232D1384801680291416841
:100E1000019181680491C068039035480597354F6A
:100E20008ECF029C0460019C4460049C8460039CFF
:100E3000C460044610348EC42F490A6804924A687C
:100E400003928A680292C96801912C4F3968009117
:100E50003F1D8CCF049C0462039C4462029C84620C
:100E60001F4C0199C162009930308EC0059F00F07F
:100E70000DFB00200C90012009900220079008969D
:100E800007A80CA900F09CF8002804D01C4803F027
:100E90001FFDFFF73FFEBF193068401C04D0194802
:100EA00003F016FDFFF736FEB7420AD800F0F2F95C
:100EB0000698A060204601F0DBF80DB0F0BDBE4200
:100EC000F4D2012031462A4600F0EEF9002802D083
:100ED0000028F4D102E080350028F0D18036EEE71A
:100EE000C8010020FF0F000000500008640000202F
:100EF00004040020740000208400002094000020DE
:100F00006C4A0008564A0008B0B596B00D46044633
:100F100006A8001D3C21FFF704F9069500F0B6FA7B
:100F2000012003900294022001900020009001A86B
:100F3000694600F045F8002804D00AA003F0C8FC78
:100F4000FFF7E8FD012006AA214600F0ADF90028D0
:100F500004D00BA003F0BCFCFFF7DCFD00F09AF915
:100F600016B0B0BD0D0A53746174757320466C6180
:100F70007368204572617365204572726F720D004F
:100F80000D0A53746174757320466C617368205741
:100F900072697465204572726F720D00B0B50446B7
:100FA00000F046FB0546601C02D0044800680419A6
:100FB00000F03EFB401BA042FAD3B0BD3801002038
:100FC000F0B587B0A94B1A78012A02D1022007B0E8
:100FD000F0BD0491012206921A70A54A1268D20A45
:100FE0001C231340A34AD358A34A14681E68A3497C
:100FF00035460D407D27FF00AC42059735D13C4674
:101000001734B70C27405468BC42059F2DD1740A91
:101010000C401669A64228D196685C6827460F40A6
:10102000BE42059F21D1240C954E3440D668A6427D
:101030001BD1546903949E68934C2640039CB44290
:1010400013D194690394DE688F4C2640039CB4420C
:101050000BD1D6691C69A7B2BE42059F05D1240CED
:10106000884E3440166AA6421ED015603C4617349E
:101070001D68AD0C254055601C68640A0C40146165
:101080005C680C409460D988FB4C2140D160996821
:10109000FB4C21405161D96821409161198AD1618D
:1010A000598AF64B194011620268032A28D0022A95
:1010B00015D0012A069800D0D2E000F0B9FA0599BF
:1010C0004418012006900604EE4D2F1F3868304268
:1010D00000D195E000F0ACFAA042F6D320E00390F6
:1010E00000F0A6FAC419012006900604E54D2F1F52
:1010F0003868304216D000F09BFAA042F7D30FE0D8
:10110000039000F095FAC419012006900604DD4D05
:101110002F1F386830423DD000F08AFAA042F7D342
:1011200006989DE0D84838600022D14304980160B9
:10113000039841688068C00140188142069800D336
:101140008EE00192C7484260286802220292104352
:101150002860FF200691086000F06AFA059944189B
:101160003868304204D000F063FAA042F8D36BE054
:10117000C548386028680299884328600398416808
:101180008068C0014018069980318142019AD9D304
:10119000104665E0BC4838600022D14304980160E5
:1011A0000398C36800690003C0188342069857D2A9
:1011B00002920120C002296801432960FF200693A2
:1011C000186000F035FA059944183868304204D0A8
:1011D00000F02EFAA042F8D33AE0AB483860286815
:1011E0002A49084028600398C16800690003401834
:1011F000A149069A89184B1C8342DAD302982FE042
:10120000A148386000219748069141602868042170
:101210000491084328600120C0061D49016000F0C8
:1012200007FA059944183868304205D000F000FAF2
:10123000A042F8D3032002E093483860069829685A
:10124000049A914329600BE028680299884302E0E0
:1012500028680E4908402860049806990160032018
:10126000002280490A7007B0F0BDC0461805002072
:10127000041002407C49000800210240FF010000E8
:10128000FF0F0000FF3F0000FFFF0300FFF7FFFF1D
:10129000214334120120C0077A490A6802430A60D8
:1012A0000868C043C00F7047F0B587B06D4B187821
:1012B000012802D1022007B0F0BD05910392012060
:1012C0001870694B1B68DB0A1C241C40674B1E59B5
:1012D000674B1C68356867492F460F407D22D10057
:1012E000BC4231D10A461732AC0C14405A68A242B3
:1012F0002AD16A0A5F4C22401C69944224D19A6820
:10130000069275682C465B4A1440069AA2421BD18D
:101310002A0C594C2240DC68944215D15A69B468B1
:10132000574D2C40A2420FD19A69F4682C40A2423A
:101330000AD1DA693569ACB2A24205D12A0C4F4C08
:1013400022401C6A94421FD01F600A46173234683C
:10135000A40C14405C603268520A464C22401A6168
:10136000726822409A60F288434C2240DA60B26888
:10137000434C22405A61F26822409A61328ADA6113
:10138000728A3E4C22401A62049105994A0601D0A5
:1013900007B0F0BD00F04CF9049947180120069001
:1013A00004043848051F2868204205D000F040F9A1
:1013B000B842F6D303204FE0029433482860314905
:1013C0000868069A10430860EFF31080019072B627
:1013D0000021039A059B07E01833D6695E60083345
:1013E000083120321F2818D21068186050685860E1
:1013F00090689860D068D860106918615069586129
:1014000090699861072008431F28E5D1069CE704EE
:101410001C4C26683E432660DEE7019880F3108866
:1014200000F006F904994718029C286820420BD066
:1014300000F0FEF8B842F8D312490868069A9043C3
:101440000860032007B0F0BD0F4828600D49086808
:10145000069A9043086000200021024A117007B0EC
:10146000F0BDC04618050020041002407C49000869
:1014700000210240FF010000FF0F0000FF3F0000BD
:10148000FFFF030014200240118000000648C168DD
:10149000002901D40020704704490160044901601B
:1014A000C068C00F7047C04608200240230167454E
:1014B000AB89EFCDF0B589B0059008910B68002B92
:1014C00000D1A3E052480599814201D0022000E0FA
:1014D0000120052109070026059A8A42009600D0BE
:1014E00000900598203001903446069637460EE06D
:1014F0001943484841607F1C089803681846F84023
:101500000836A41C0699091D069100287ED00120EA
:101510000546BD402B40EED003960493089A5668CA
:10152000102131431229079412D113461C21069A27
:1015300011400F268E40FC080297A700019CE2593B
:10154000B2431E698E401643E651029F079C5E68B7
:10155000032231461140A1400292A240059B1C6823
:1015600094430C431C60D143122E12D8B0402B4A36
:1015700010420ED0059CA0680840089AD268079BCC
:101580009A400243A2603009B8406268AA4302430D
:101590006260059AD068084008998968079CA14054
:1015A0000143D160F000049B039EA4D51820304075
:1015B0000F2181403A46029CA243164CA218146E99
:1015C0008C43009981402143089D1166124C21688B
:1015D0006868C20301D5194300E09943216061683E
:1015E000820301D5194300E0994361600949096804
:1015F000C20201D5194300E09943079C054A1160D6
:101600005168800200D573E7994372E709B0F0BDD5
:101610000004005000180240801802400600060036
:10162000002A02D01822815070472822815070472A
:10163000014800687047C046900500202921405CA1
:1016400070470000F0B583B000281BD00446074661
:1016500028377878002804D100203870204600F020
:10166000D3FC24207870206801680126B143016012
:1016700000F086FE65683D498D4205D33D498842AC
:1016800005D26FE001266DE0394988426AD302979E
:1016900039490190FEF72FFF06463F20C1432768D6
:1016A000786800910840304378604B208000704398
:1016B0007D21C900FEF71FFF2C498D4200D306464D
:1016C000701C396A009A114001433962F8692B4E47
:1016D00006402B4A2B4885420BD80198401E6900D2
:1016E0001546FEF708FF401C284004281FD8042098
:1016F0001DE00198401EA16800290BD01921694303
:10170000FEF7F9FE401C1E4908400FD00121890355
:10171000401807E003216943FEF7EDFE401C18491D
:10172000084003D00121C903401800E001203043E4
:10173000F8613868C0218843216901436069084322
:101740003860B868FE218843E1680143B9603868B1
:101750000121014339600026E66220200299487089
:1017600066628E70304603B0F0BDC046A1860100AF
:1017700080841E0000093D0040420F000030FFFF42
:10178000FF0F0000A0860100F0B58BB0079317464D
:101790000E46054604462834FFF74AFF03466178A3
:1017A0000220202924D10397069626460746129840
:1017B0000890119804901098059009932C68A169DD
:1017C000890711D5FFF734FF099BC01A1A28F5D3F2
:1017D0000020686220217170B0703070E86A0843A0
:1017E000E86238460BB0F0BD31780129384601D1A6
:1017F0000BB0F0BD0120029030702168C90703D101
:10180000216801220A4322600298C10222688A43A9
:1018100022602221717040210096B1700021019157
:10182000E9620499E983E98BEE4A2A62860222681A
:10183000374632432260000222680490024322604D
:101840000598A861A9836169C90714D1019E02E0C6
:101850006169C90710D10898411CF9D0FFF7E8FE6B
:10186000099B0899002900D1AAE0C01A884200D932
:10187000A6E02C68ECE7019EFE2106980840069041
:101880002061616989071BD42146143105E02C6869
:10189000214614316269920712D462693A4200D03B
:1018A000D2E00898411CF3D0FFF7C2FE2021089A2D
:1018B000002A00D1D0E0099BC01A9042E7D9CBE0C2
:1018C0000A9661690A91A1690A910A9961690906F2
:1018D0001CD42146143104E02146143162691206F9
:1018E00014D462693A4200D093E00898411CF3D0C6
:1018F000FFF79EFE2021089A002A00D18CE0099B68
:10190000C01A904200D987E02C68E5E707980128C3
:1019100021D00398010A2161616909061BD421467F
:10192000143105E02C68214614316269120612D484
:1019300062693A4200D09CE00898411CF3D0FFF75E
:1019400077FE2021089A002A00D195E0099BC01A51
:101950009042E7D990E00398C1B22161616909061C
:1019600019D42146143105E02C68214614316269EE
:10197000120610D462693A424BD10898411CF4D047
:10198000FFF756FE2021089A002A45D0099BC01A6D
:101990009042E9D940E021680498014321606169DF
:1019A000C90715D10898411CF9D0FFF741FE099BE2
:1019B0000899002904D0C01A884201D82C68EEE7A3
:1019C000002068622021009A5170907010704AE0E7
:1019D00001200290069901432161BF492846089CD5
:1019E000224601F0E3F8002840D1A88B022861D0FC
:1019F00001284BD0002872D10A96286841690A91C3
:101A000081690A910A990121490202680A43026028
:101A10006FE0B04808600421002068622022009B2B
:101A20005A709870EA6A0A43EA621870E86A0428F1
:101A3000029800D0DCE60123580229680A680243B4
:101A40000A6018460BB0F0BD01225202236813430E
:101A50002360A04808600421002068622022009BC7
:101A60005A7098701870E86A0843E86202980BB0E0
:101A7000F0BD9848086004216E622020009A5070E2
:101A80009670E86A0843E8621670CFE70120810289
:101A90002A6813688B43136072B60A9629684A69EC
:101AA0000A928A690A920A9A40020A6802430A6004
:101AB00062B61EE00120C1022A6813680B4313605E
:101AC00072B600210A9129684A690A928A690A92C3
:101AD0000A9A80020A6882430A6062B609E02868AE
:101AE0000168394301600A9641690A9180690A9048
:101AF0000A98A88B0028009E00D1BCE080B2042880
:101B000016D202283AD0012828D12868416949060E
:101B100000D5A1E04169C90600D5B3E0FFF788FD13
:101B20000999002C00D1B7E0401AA042EDD9B3E0EA
:101B30002868416949062DD44169C90600D5A1E04C
:101B4000FFF776FD0999002C00D1A5E0401AA042CC
:101B5000EED9A1E0401AA04200D9A6E02868416968
:101B6000490741D4611CFAD0FFF762FD0999002CA6
:101B7000F0D19AE0401AA04200D996E02868416965
:101B8000490719D4611CFAD0FFF752FD0999002CBE
:101B9000F0D18AE0A96900690870E88B401EE883EB
:101BA000A869411CA961A88B401EA8832A685369B3
:101BB0005B075DD5106951E072B6012040022968CB
:101BC0000A6802430A60A86909690170A869401C93
:101BD000A861A88B401EA883E88B401EE88362B6EC
:101BE00035E0C0460000FFFF0127B90202688A43C2
:101BF000026072B6A869296809690170E88B401E05
:101C0000E883A869401CA861A88B401EA8832868A7
:101C1000416949070AD4611CFAD0FFF709FD099907
:101C2000002C4CD0401AA042F1D948E07902026859
:101C30000A430260A96900690870A869401CA8618C
:101C4000A88B401EA883E88B401EE88362B6A86973
:101C500029680969017002E0A96900690870A8692A
:101C6000401CA861A88B401EA883E98B491EE9830C
:101C7000010400D042E72020707001983070B070ED
:101C80000BB0F0BD1021C9434161019A6A62202066
:101C90007070B270E86A06E0019A6A622021717081
:101CA000B270E86A08433270DFE601996962202069
:101CB0007070B1703170E96A0143E962D6E601994A
:101CC000696220207070B1703170E96A0143E96285
:101CD00087E5C046FFFBFFFF02000100F0B58BB0B7
:101CE000079317460991054604462834FFF7A0FCE0
:101CF000064661780220202921D1039727460890C3
:101D00001298069011980490109805902C68A1697B
:101D1000890710D5FFF78CFC801B1A28F6D300200A
:101D2000686220217970B8703870E86A0843E86208
:101D300008980BB0F0BD39780129089801D10BB093
:101D4000F0BD0120089038702168C90703D12168CF
:101D500001220A4322600898C10222688A43226055
:101D6000212179704021B97000210291E962049922
:101D7000E983E98BA24A2A620202236813432360A3
:101D80000598A861A9836169C90716D1069802E080
:101D90006169C90711D1411CFAD02C460546FFF7ED
:101DA00047FC002D00D1F9E0801BA84200D9F5E0E6
:101DB0002146246828460D46EAE7FE210998084096
:101DC0002061089880020990616989071AD4214628
:101DD0001431069806E020462C68214614316269C9
:101DE00092070FD46269099B1A4278D1411CF4D042
:101DF0000446FFF71DFC2021002C78D0801BA04258
:101E0000E9D974E002980A9061690A91A1690A917E
:101E10000A99616909061CD421461431069806E026
:101E200020462C68214614316269120612D4626978
:101E3000099B1A4200D0C8E0411CF3D00446FFF7CA
:101E4000F7FB2021002C00D1C2E0801BA042E7D983
:101E5000BEE006980799012921D00399090A21615A
:101E6000616909061BD42146143106E020462C681E
:101E7000214614316269120611D46269099B1A4223
:101E800000D095E0411CF3D00446FFF7D1FB2021A0
:101E9000002C00D18FE0801BA042E7D98BE0039992
:101EA000C9B221616169090626D42146143104E0D2
:101EB00021461431626912061ED46269099B1A42D6
:101EC0000DD1411CF4D00446FFF7B2FB2021002CB9
:101ED0000DD0801BA0420AD820462C68E8E70122DA
:101EE00052022368134323604648086004210020FF
:101EF000686220227A7016E7A98B00293AD00197F0
:101F00006169090619D42146143104E021461431CF
:101F10006269120611D46269099B1A4248D1411CB8
:101F2000F4D00446FFF784FB2021002C43D0801B13
:101F3000A04240D820462C68E8E7A9690A782261C7
:101F4000EA8B521EEA834A1CAA61AA8B1746521ECC
:101F5000AA8363695B070AD5130408D04A78226113
:101F6000BA1EAA83891CA961E98B491EE983110461
:101F7000019FC5D101462846324600F0E1FD002808
:101F80002FD10120400229680A6802430A602020FC
:101F9000787002983870B8700BB0F0BD00206062A5
:101FA00020217970B8703870E06A0843E062BFE6BB
:101FB000144808600421029A6A6220207870BA707E
:101FC000E86A0843E8623A700BE00E4808600421B2
:101FD0000020686220227A70B870EA6A0A43EA62D6
:101FE0003870E86A0428089800D0A8E6012358024F
:101FF00029680A6802430A6018460BB0F0BDC04663
:102000000000FFFFFFFBFFFFB0B586B0002005908A
:102010000490039002900190012003904405124D1A
:102020002869204328612869204000900098A8680A
:1020300002210843A860A86808400090032004908B
:102040001220029018200190009806200590074861
:1020500001A9FFF72FFA2868204328602868A043C9
:10206000286006B0B0BDC0462C10024000040050ED
:10207000B0B5002817D0044600680E4901600E492B
:10208000016061684160A1688160FFF7D1FA05468F
:102090002068C168002908D0FFF7CAFA401B302821
:1020A000F6D90320B0BD0120B0BD04490160002075
:1020B000B0BDC046CCCC000055550000AAAA000017
:1020C0001A48006802490A68101808607047C0463C
:1020D0009005002080B5032000F008F8002801D00A
:1020E000012080BD00F024F8002080BDB0B5054679
:1020F0000E4801680124002916D07D20C000FEF79B
:10210000FAF90146A5480068FEF7F5F900F024FB4E
:10211000032D09D8002807D10024E0432946224690
:1021200000F028F8954805602046B0BD3801002031
:1021300082B0094841680122114341604168114061
:1021400001910199110702680A4302600068084082
:102150000090009802B070473C100240002805D45F
:102160001F21084001218140014801607047C0469D
:1021700000E100E0002805D40322034693430A4A05
:102180009A1803E00C220240064BD2188007C00EBA
:102190008901C9B28140FF238340106898430843F6
:1021A0001060704714ED00E000E400E0F0B583B08B
:1021B00000284AD00D46029069480068012101912B
:1021C0000840A84214D2664908680124A043284365
:1021D0000860644FFFF72CFA06466148006820400B
:1021E000A84205D0FFF724FA801BB842F5D9ACE02D
:1021F000029B186881076A4F0DD5410704D5072156
:1022000009033A680A433A600F2109023A688A438F
:10221000996811433960C0071AD1514800680126F6
:102220003040A84222D94E490868B04308604D4C5E
:10223000FFF7FEF905464A480068C00716D0FFF7C9
:10224000F7F9401BA042F6D97FE0012003B0F0BDB2
:102250005968002901985CD0042955D0012977D10B
:102260003A46083A1268520358D450E0029A10785D
:10227000400706D50720000339688143D06808432A
:10228000386038688006400F06D03868382108402A
:1022900008280FD1344826E0384608380168381F2E
:1022A0000068C00A1C220240324880588904490F45
:1022B000C84018E03A680A40F003202A13D03A6870
:1022C0000A40182A0ED1391F0B68284A14681B0CC3
:1022D0006340DB0507D0264809685268090C514065
:1022E000014239D00020396889093C220A4022493C
:1022F00089581F220A40D040284908601F480068BA
:10230000FFF7F4FE03B0F0BD7A6D920706D403B078
:10231000F0BD3A46083A12685205F8D538680722E7
:102320009043084338600F4CFFF782F9064638683F
:102330003821014002984068C000814200D16CE71A
:10234000FFF776F9801BA042F1D9032003B0F0BD5E
:10235000BA6D9207DBD5E1E74B204002C3E7C046E8
:10236000002002408813000000366E014401FF1F68
:10237000FF0100009C4900081C4900083C010020A6
:10238000F148006806490968890A1C220A40054983
:1023900089581F220A40D0407047C04618000020CC
:1023A000081002405C490008F0B583B00125002800
:1023B00000D1B2E104460068C107DC4F14D0B9680F
:1023C00038260E406168082E04D1002900D1A4E10E
:1023D000082609E001229204891A4B424B419904D4
:1023E0003B689343591839600295800707D42078D9
:1023F000000728D42078400746D400258DE1BE6828
:1024000038210E4001944CD03868012123468C02BB
:102410001A69002A76D00721C90288435969014305
:102420003960C348FF38396801433960FFF700F964
:1024300005463868204200D088E0FFF7F9F8401BD5
:102440000228F6D96CE0B86838210840182845D130
:10245000386E800703D5E069002800D15CE1009167
:102460007868BB490140206A000408437860FFF7A0
:10247000DFF80546386E800700D582E0FFF7D8F810
:10248000401B0228F6D94BE0B868382101402029CA
:1024900048D1F86D8007B0D5A0680028029DACD166
:1024A0003BE101253868400503D52069002800D1AB
:1024B00033E100912246AC0278689E490140906960
:1024C00008437860FFF7B4F806463868204245D1E3
:1024D000FFF7AEF8801B0228F7D921E0386EE169DA
:1024E00000295ED0012108433866FFF7A1F80646AF
:1024F000386E800768D4FFF79BF8801B03250228FD
:10250000F6D90AE1090288433860FFF791F80546D9
:102510003868204256D0FFF78BF8401B0228F7D9C5
:102520000325FAE0A168002956D0032528043A695A
:102530008243E06810433861F86D052900D199E0C5
:10254000012900D09DE001210843A0E07868794985
:102550000140019CA0690843786048E70720C00259
:1025600039688143019C606908433860B868800617
:10257000400F48D0B868009A104008284ED16E48E5
:1025800065E0182E00D0C0E0B8688006400F00D18A
:102590008CE0B868009A1040082800D091E06648A6
:1025A000A8E0012188433866FFF742F80646386EF6
:1025B000800700D41EE7FFF73BF8801B03250228A5
:1025C000F5D9AAE0019C12E7786861490140206AC8
:1025D0000004084378600DE7F86D01218843F86531
:1025E000F86D04218843F8655A4EFFF721F8044638
:1025F000F86D800700D400E7FFF71AF8001B0325E9
:10260000B042F5D989E039687868C00A1C220240D6
:102610004B4880588904490FC84018E0B9681140F8
:102620000120C003202912D0B968114018290DD10A
:102630007A6842490B68120C5A40D20507D03C48D0
:102640007A684968120C4A40024269D00020B96891
:1026500089093C220A403B4989581F220A40D04040
:102660003949086039480068FFF740FD002854D117
:102670000026BCE604210843F865F96D01200843F3
:1026800005E001218843F865F86D04218843F86569
:10269000304EFEF7CDFF0446F86D800700D5ACE65E
:1026A000FEF7C6FF001BB042F6D936E039687868FD
:1026B000C00A1C220240224880588904490FC840A1
:1026C00018E0B96811400120C003202912D0B96870
:1026D000114018290DD17A6818490B68120C5A401C
:1026E000D20507D012487A684968120C4A40024263
:1026F00019D00020B96889093C220A40114989583B
:102700001F220A40D0401049086010480068FFF7B7
:10271000EDFC002800D16DE6029D284603B0F0BD17
:102720004B20400293E74B204002E3E700100240B9
:10273000FF0100000000FFFF00366E014401FF1F93
:102740009C4900081C490008180000203C0100209A
:10275000FFFF00FE88130000401E010E01D0012083
:1027600070470749074A5060074803680B40032138
:102770008907591801600020906007211160704797
:10278000FFFFFF0010E000E020ED00E07047704721
:1027900010B5002813D0817F002905D10021417791
:1027A000044600F037F820460221817701680C6862
:1027B000164A914205D02346914208D10AE00120F1
:1027C00010BD70239C4383682343914202D0104C78
:1027D000A14205D103242402A34304691C4300E061
:1027E0001C4680239C43836923430B60C368CB62F0
:1027F00043688B62914202D0054A914201D14269FD
:102800000A6301224A618277002010BD002C01403A
:102810000020004081B00120C102094A13680B4327
:10282000136012680A40009200994003054908604D
:10283000FF20000204490A6882430A6001B0704721
:102840004010024000E100E00CE400E00068C268D3
:1028500001210A43C260826807231340062B02D07D
:1028600002680A430260002070477047B0B5044612
:102870008020C54320680169890717D5C168890789
:1028800014D529467E3101610121217780698007B5
:1028900003D02046FFF7E9FF05E0204600F08AF864
:1028A000204600F088F80020207720680169490759
:1028B00018D5C168490715D529467C310161022127
:1028C000217780698005800F03D02046FFF7CDFF78
:1028D00005E0204600F06EF8204600F06CF800207D
:1028E000207720680169090717D5C168090714D541
:1028F00029467831016104212177C069800703D01E
:102900002046FFF7B2FF05E0204600F053F82046CE
:1029100000F051F80020207720680169C90618D519
:10292000C168C90615D52946703101610821217792
:10293000C0698005800F03D02046FFF796FF05E0B1
:10294000204600F037F8204600F035F800202077C8
:1029500020680169C90709D0C168C90706D029469E
:102960007F310161204600F027F8206801690906DF
:1029700007D5C168090604D505612046FFF706FFA3
:1029800020680169490609D5C168490606D5294666
:1029900040310161204600F019F82068016989067C
:1029A00007D5C168890604D5603505612046FFF763
:1029B000EEFEB0BD7047704703480178002902D091
:1029C0000178491E01707047440400207047F0B53B
:1029D00081B000283CD0044605463C356878002884
:1029E00004D100202870204600F036F824206870BA
:1029F00001277E032068C168B143C160204600F012
:102A000065F92021605C4006206810D53A034369CF
:102A100093430096666A334343619642009E06D113
:102A20000322520343699343A26A1A434261FA02A2
:102A3000036993430361426908239A434261C26870
:102A40003243C260002020646970A97001B0F0BDFB
:102A5000012001B0F0BD000070B586B029480168C2
:102A60000126314301600168314001910199B103B0
:102A7000C2680A43C260C068084000900596022000
:102A80000490039602900820019000980520040706
:102A900001AD20462946FEF70DFD05961020019058
:102AA00020462946FEF706FD06B070BDFEE7000091
:102AB000B0B586B00020059004900390029001907C
:102AC000F148016802221143016000681040009043
:102AD00003200490012403941220029018200190F6
:102AE0000098094D01A92846FEF7E4FC0821284674
:102AF0002246FEF795FD102128462246FEF790FD5E
:102B000006B0B0BD341002400004005010B50948B2
:102B10000021094A094B0124A40303604260846038
:102B2000C16001614161FEF78DFD002801D0FDF714
:102B3000F1FF10BD8801002000093D000054004055
:102B4000F0B581B00F460446036859690020490773
:102B50002AD416460090254628351946143104E03B
:102B6000194614315A6952071DD45A6952050BD4BB
:102B7000791CF5D0FEF75CFD2021002F07D0801BCB
:102B8000B84204D82368EBE72948086004210020F4
:102B9000606220226A70A8702870E06A0843E062D0
:102BA000012001B0F0BD009801B0F0BDF0B583B0D8
:102BB000029304468DB20668716929400020A9423B
:102BC00033D0174600902146283101913146143107
:102BD00005E072692A4031461431AA4224D0726954
:102BE00052050CD4791CF4D0FEF722FD2021002FD1
:102BF0000DD0029A801AB84209D82668E9E7012266
:102C000052023368134333600948086004210020EE
:102C100060622022019B5A7098701870E06A084325
:102C2000E062012003B0F0BD009803B0F0BDC046E3
:102C3000FFFBFFFF70477047704780B5FFF740FA12
:102C400080BD000081B017480168174A0A40174943
:102C50000B68134303600268154B1340496C090469
:102C6000194301600120C006124908601248009013
:102C700000BF0098411E0091002811D000BF0098AD
:102C8000411E009100280BD000BF0098411E00910A
:102C9000002805D000BF0098411E00910028E7D110
:102CA00001B07047041002400000FFFF0001FF1F49
:102CB000FFFF00FE08ED00E0E093040080B502484D
:102CC000FFF7D4FD80BDC046D8010020F0B581B02B
:102CD000044601214A03006803699343E2681A43EA
:102CE0000261A2682369134362691A43C368264DCF
:102CF0001D401543C560CD024169A943E6693143D2
:102D000041610321090242698A43A169114341617A
:102D1000FFF736FB0146192048436168AE4216D1E1
:102D20004900FDF7E8FB064664273946FDF7E3FB5B
:102D30000546174868438019C00032303946FDF710
:102D4000DAFB0721014040001F22120113E0890035
:102D5000FDF7D1FB064664273946FDF7CCFB054657
:102D60000A4868438019000132303946FDF7C3FB39
:102D70000F210140F022024028011018401821685C
:102D8000886001B0F0BDC046F3E9FFFF9CFFFF0F74
:102D90009CFFFF1F10B50D48016889060CD50C4932
:102DA0000A68FF2A08D843680A4CA354521C0A60D8
:102DB00001682022914301600168C90604D50649D3
:102DC00001220A700168406810BDC0460038014009
:102DD000800100204001002084010020F0B587B070
:102DE00001902949086801242043086008680D46BD
:102DF000204002900298069403200590049402203B
:102E00000390182002900520000702A9FEF752FB4C
:102E1000A003E9680143E9602B461C4E00270C2102
:102E20001B4D2A460C3A3260019A7260B760F76017
:102E300037617161B761D9680140029102983046EB
:102E4000FFF7C5FD3068C16810221143C1602868D2
:102E5000042101432960286808210143296028686A
:102E6000104328602868202101432960083D286814
:102E70002F601B25284621462246FFF77BF928466E
:102E8000FFF76CF907B0F0BD34100240F8010020E4
:102E90000C3801400021C16101628176074A42611C
:102EA00008224282C1600181C18005210171032293
:102EB00052020283090601607047C04650000400B8
:102EC000F0B583B0009301920D46044600200290B5
:102ED000A0763B4F08463946FDF7A4FA002808D1F2
:102EE000002628463146FDF78FFA00282F4600D1EC
:102EF00037463846FDF7CAFA2178022942D001291F
:102F000008D00029029B44D1019DA84244D263709D
:102F100003B0F0BDE188491CE18022898242029D14
:102F200001D220810246E3681B18E360009EB04294
:102F300001D8A078451CA5702079EDB2854214D344
:102F4000658A88B2A8420AD3A58AA84207D8E08A2F
:102F5000824204D32362E183A2830120A07602206F
:102F600020800020A070607E207688B2652811D372
:102F70002362E183A2830120A0760020A07020803C
:102F800003B0F0BD207E002816D0401E207603B08E
:102F9000F0BD237003B0F0BD6178491C6170E27828
:102FA000C9B29142F6D3E06020810120E080207018
:102FB0002582A37003B0F0BD0020207003B0F0BDE7
:102FC00000FF7F47F0B587B0029000F07BFB0F2039
:102FD000C1430020542206927F4F059004901DE0CB
:102FE000059964207C4F0591395200200190B86505
:102FF00004983146FDF7A0F87D21CC0504902146C8
:10300000FDF7F3F838663D4644352ECD3C4E2EC6CE
:103010000699491C06910399091D3ED00298401853
:10302000066903917D186F6930463946FDF7FAF954
:10303000044630463946FDF7D0F80146002C00D151
:103040002146686B2A4634322A4B00F0D7FB0446EF
:103050006863686A2849FDF7C8F80746274E314675
:10306000FDF7C4F9002800D13E4620463146FDF761
:10307000D9F9074620463146FDF7AFF8002F00D1B9
:1030800038466865781E394681415348069A81540E
:10309000002FA5D00599491CA3E7019A797800294A
:1030A00023D1264684217A528021164A7A5028213B
:1030B0003C2250237B67BA67F967012179700F4D75
:1030C0002946FDF792F83F210906FDF78EF8B8660C
:1030D0002946FDF78AF804463146FDF786F8386739
:1030E00020462946FDF7BEF8F866029800F00CF875
:1030F00007B0F0BDCDCC4C3F0000A04000004040E8
:103100003805002002000100F0B583B00090324A7B
:10311000107800285DD00F20C4430023542507E019
:103120003E602D4A029B6D1C241D5B1C002C50D060
:10313000505D1719002823D0982000213950A8206D
:103140003958491C3950C929EDD3009806193169FD
:103150007869012201920293032300F091FA01465B
:103160007861306900F022FB0146786A0523019AF4
:1031700000F086FA02998900174A571814371EE0A2
:10318000A8200021395098203958491C39501F294E
:10319000C9D3029300980619316978690122019216
:1031A0000A2300F06DFA01467861306900F0FEFAFA
:1031B0000146786A6423019A00F062FA24377F217D
:1031C000CE0501903146FDF711F90028A8D1019EE6
:1031D000A6E703B0F0BDC0465C040020F0B587B0A0
:1031E0004D000024254A264B274E049005E0049804
:1031F000224A234B641C042C3BD0A100415889185F
:103200009942F7D801271F480019009001971A48E2
:1032100002902F22304629463B46FEF75FFD0028EC
:1032200004D13046FEF70AFA2028FAD106A9059102
:1032300000200870FEF7FCF91448005D059902E0D3
:103240001248005D06A909780842D0D1F9480290D9
:10325000019706A800907322304629463B46FEF7A8
:1032600093FA0028ECD13046FEF7E8F92028FAD18D
:10327000E6E707B0F0BDC046881300001F5A81FF83
:103280003EA881FF1C0000208801002020000020B3
:10329000F0B591B00A9100240F940E940B9410A9EC
:1032A0008C700C80E34A03230091099301930292EE
:1032B00004904700E0487522012639463346FEF760
:1032C00063FA00280AD1DC4C2046FEF7B7F9202823
:1032D000FAD110A80188807800040C18FF2001069C
:1032E00020020791089700D564180C9410A80025B7
:1032F00085700580009009980190CE480290CE48D4
:10330000782208993346FEF73FFAF10500280CD1E0
:103310000F46C94E3046FEF791F92028FAD110A881
:103320000188807800040D1839460F460D4201D0FF
:103330000798054305950D9510A800268670068010
:10334000009009980190BB480290BB487B22012362
:10335000089D2946FEF718FA002800D14BE13E42AD
:1033600001D00798064306960E9610A80026867090
:103370000680009009980190AE480290AE487E22E7
:1033800001232946FEF700FA002800D142E13E421F
:1033900001D007980643049907960F960CA80022BF
:1033A000FFF71CFFA3480290042001900BA8009097
:1033B000A1484122012629463346FEF7E5F90028B7
:1033C00005D19D4D2846FEF739F92028FAD120462F
:1033D000FDF748F80024994B2246FCF781FFFDF7E2
:1033E0006EF805460BA8007831020991081AFDF71E
:1033F00027F89349FCF7F9FE2946FCF79DFE0A9948
:103400008900904A5158FCF7E8FE06468E4F39462F
:10341000FCF7EBFE054638463146FCF7DEFE01467A
:103420002846FCF71FFF054630463946FCF7DEFF0D
:10343000002800D1054628462146FCF7C9FF002890
:103440000BD10A988400814805510059804E3159AA
:10345000FCF7C3FE7F49085135510598FDF702F886
:103460000022764B0892FCF73BFFFDF728F8054653
:103470000BA840780999081AFCF7E2FF7049FCF79D
:10348000B4FE2946FCF758FE0A99491C8C006D4988
:103490000959FCF7A2FE06466B4F3946FCF7A5FE1C
:1034A000054638463146FCF798FE01462846FCF7AB
:1034B000D9FE054630463946FCF798FF002800D172
:1034C000054628460899FCF783FF002809D1FE48E5
:1034D000055100595E4E3159FCF77FFE5D49085198
:1034E00035510698FCF7BEFF0022544B0892FCF7BA
:1034F000F7FEFCF7E4FF05460BA880780999081A47
:10350000FCF79EFF4E49FCF770FE2946FCF714FEBF
:103510000A99891C8C004B490959FCF75EFE064646
:10352000494F3946FCF761FE054638463146FCF7FF
:1035300054FE01462846FCF795FE054630463946BE
:10354000FCF754FF002800D1054628460899FCF7EF
:103550003FFF002809D1DC48055100593C4E315944
:10356000FCF73BFE3B49085135510798FCF77AFFC1
:103570000022324B0892FCF7B3FEFCF7A0FF054691
:103580000BA8C0780999081AFCF75AFF2C49FCF7D8
:103590002CFE2946FCF7D0FD0A99C91C8C0029494C
:1035A0000959FCF71AFE0646274F3946FCF71DFE5F
:1035B000054638463146FCF710FE01462846FCF722
:1035C00051FE054630463946FCF710FF002800D171
:1035D000054628460899FCF7FBFE002809D1BA48A1
:1035E000055100591A4E3159FCF7F7FD1949085198
:1035F000355111B0F0BD104E3046FEF71FF82028AF
:10360000FAD110A80188807800040E183E4200D03C
:10361000A7E6A8E6084E3046FEF710F82028FAD1B3
:1036200010A80188807800040E183E4200D0B0E651
:10363000B1E6C046881300008801002099993941FD
:10364000CDCC4C3EA800002000002041F403002017
:10365000040500204804002072B608480A210170C1
:1036600062B60178002908D00178002905D00178D8
:10367000002902D001780029F3D1704744040020CA
:10368000F0B581B01C4616460F460090981AFCF71C
:10369000D7FE05463046FCF7DEFE3946FCF7A5FDB1
:1036A000064600982946FCF7A0FD3146FCF744FD8C
:1036B00005462046FCF7CFFE01462846FCF7D2FD22
:1036C00001B0F0BDF0B581B0804A1178002901D079
:1036D00001B0F0BD51680668012504270090084636
:1036E00031462A463B46FFF7CBFF0146774841600B
:1036F000304600F05BF80146744840692A463B4674
:10370000FFF7BEFF7149486170488068009C666899
:1037100031462A463B46FFF7B3FF01466B488160BE
:10372000304600F043F80146684880692A463B4627
:10373000FFF7A6FF654988616448C068A6683146FE
:103740002A463B46FFF79CFF01466048C160304671
:1037500000F02CF801465D48C0692A463B46FFF759
:103760008FFF5A49C86159480069E66831462A46C0
:103770003B46FFF785FF014654480161304600F0A3
:1037800015F801465148006A2A463B46FFF778FF84
:103790004E4A106204480188491C018088B265289D
:1037A00096D3158001B0F0BD58040020F0B581B06B
:1037B0000D460646FCF736FE074630462946FCF71E
:1037C0000CFD044628463146FCF707FD002F00D1CA
:1037D0000446204601B0F0BD07490A68520608D4E5
:1037E0000A68520605D40A68520602D40A685206CC
:1037F000F3D5C2B24A60704700380140F0B581B0DD
:103800001D4600920E4607467F20C0051946FCF76C
:10381000E4FC044630462946FCF7E7FC05463846FA
:103820002146FCF7E2FC2946FCF786FC009908607B
:1038300001B0F0BD88B0FDF73DF92148FFF72AFB44
:1038400000F0E6F9002007901D4C07A91D4800F084
:103850004FFA079800F06AF800F0E2F81A48FFF70C
:10386000B1FB1A48456928461949FCF7BEFCFCF72C
:103870000DFE064628462946FCF75EFCFCF706FED0
:1038800003461448016820463246FFF719FB00F052
:1038900041FB206805906068069027460837ECCF0A
:1038A000E169206A009501960297039104900598BA
:1038B000069900F057F80120FDF770FBC5E7C046F8
:1038C000D003002048050020F40300205C04002001
:1038D0000000A04038050020F0B581B004464E4DF0
:1038E0000427012228463946FDF79AFEFFF7B4FE69
:1038F0000026284639463246FDF792FEFFF7ACFE19
:10390000002C11D00427012228463946FDF788FEF5
:10391000FFF7A2FE002228463946FDF781FEFFF799
:103920009BFE761CA642EDD301B0F0BDB0B50446B7
:10393000FDF77EFE094D2968401A00097D280BD34A
:1039400007492046FCF744FD002805D10820FFF771
:10395000C3FFFDF76DFE2860B0BDC04630050020F6
:1039600000007A4310B504980002000E19D00598A3
:1039700084B2632C06D8FCF7BBFB0321FCF7DAFD0D
:10398000481C09E0FCF7B4FB0321FCF7D3FDF92C3C
:1039900001D8081D00E0C81DC0B200F003F8FDF713
:1039A00047FE10BDF0B581B004460321FCF7A3FD2E
:1039B00018480278A24200D14C1C0470164D04270E
:1039C000012228463946FDF72BFEFFF745FE00266B
:1039D000284639463246FDF723FEFFF73DFE002C10
:1039E00011D00427012228463946FDF719FEFFF7BA
:1039F00033FE002228463946FDF712FEFFF72CFE63
:103A0000761CA642EDD3FDF713FE0449086001B011
:103A1000F0BDC0463405002000040050140500200D
:103A200080B528200021FFF733FC80BDF0B58BB0B6
:103A3000064600240994684807906848069005A83F
:103A4000CC21017066490125009001950291710019
:103A500064486F2204912B46FEF740F9002805D1F7
:103A6000604F3846FDF7EAFD2028FAD10A20FDF71D
:103A700095FA283E032E00D9ABE0C0467E44367945
:103A80007600B744010B040705A8002104E005A84F
:103A9000022101E005A80321017001E005A80570DD
:103AA0004F480290019505A800904E485621592292
:103AB0002B46FEF713F9002805D14A4E3046FDF794
:103AC000BDFD2028FAD10A20FDF768FA444802908B
:103AD000019509A800904348702204992B46FDF7F0
:103AE00053FE002803D040A000F0F2FE0AE03D4E55
:103AF0003046FDF7A3FD2028FAD109A801783EA0A1
:103B000000F054FA05A80470009001953448029022
:103B10003448172204992B46FEF7E0F8002805D117
:103B2000304E3046FDF78AFD2028FAD10A20FDF7F5
:103B300035FA0A94354F2B4E02E0641C402C16D007
:103B40006000391849780AAB19703A5C0093019506
:103B500023480290304604992B46FEF7BFF8002810
:103B6000EBD13046FDF76AFD2028FAD1E5E70A20BF
:103B7000FDF714FA05A8FF2101700090019518487F
:103B8000029018482F2204992B46FEF7A7F8002828
:103B900005D1144D2846FDF751FD2028FAD10A2001
:103BA000FDF7FCF90E4802900820019006A800904D
:103BB0000C48392201230499FEF790F8002805D11A
:103BC000084C2046FDF73AFD2028FAD10A20FDF7DF
:103BD000E5F90BB0F0BDC0467F7F7F7F808080809D
:103BE00088130000880100207265616420696420E8
:103BF0006572726F720D0000726D31303032206963
:103C0000643A203078253032780D0A00B800002060
:103C1000F0B583B0B94E029601240194334F00975A
:103C2000B748322120222346FEF758F8002805D154
:103C3000B34D2846FDF702FD2028FAD1781C00A9D3
:103C400051C1AF48322121222346FEF747F8002810
:103C500005D1AB4D2846FDF7F1FC2028FAD1B81C60
:103C600000A951C1A648322123222346FEF736F887
:103C7000002805D1A24D2846FDF7E0FC2028FAD106
:103C8000F81C00A951C19E4832211E222346FEF78E
:103C900025F8002805D19A4D2846FDF7CFFC2028AD
:103CA000FAD1381D00A951C1954832215722234627
:103CB000FEF714F8002805D1914D2846FDF7BEFC0B
:103CC0002028FAD1F81D00A951C18D4832212522A2
:103CD0002346FEF703F8002805D1894C2046FDF75E
:103CE000ADFC2028FAD103B0F0BDC0460C00002086
:103CF000F0B587B00491064605A8002181800391A4
:103D000005917E4C01250090019502947C48332159
:103D100028222B46FDF738FD002805D1784F38467C
:103D2000FDF78CFC2028FAD10294019505A8401CCF
:103D300000907348332129222B46FDF725FD0028EA
:103D400005D16F4F3846FDF779FC2028FAD102944F
:103D5000019505A8801C0090694833212A222B4632
:103D6000FDF712FD002805D1654F3846FDF766FCCA
:103D70002028FAD10294019505A8C01C0090604843
:103D800033212B222B46FDF7FFFC002805D15C4F89
:103D90003846FDF753FC2028FAD10294019505A876
:103DA000001D0090564833212C222B46FDF7ECFCD9
:103DB000002805D1524F3846FDF740FC2028FAD1A3
:103DC0000294019505A8401D00904D4833212D22F5
:103DD0002B46FDF7D9FC002805D1494F3846FDF7A1
:103DE0002DFC2028FAD105A8039FC15F89113180DD
:103DF0000222825E921172800423C05E8011B08024
:103E000049435243511840430818FCF719FB00F08E
:103E10006FFD3C490A7813060FD0D3B26424E31A2D
:103E20009B00394CE050541E0C7038490968FCF76F
:103E3000D4F921065CD038465CE0064600206424B4
:103E4000314F3968FCF778F97968FCF775F9B9688A
:103E5000FCF772F9F968FCF76FF93969FCF76CF94E
:103E60007969FCF769F9B969FCF766F9F969FCF752
:103E700063F9396AFCF760F9796AFCF75DF9B96AA8
:103E8000FCF75AF9F96AFCF757F9396BFCF754F962
:103E9000796BFCF751F9B96BFCF74EF9F96BFCF74C
:103EA0004BF9396CFCF748F9796CFCF745F9B96CBA
:103EB000FCF742F9F96CFCF73FF9396DFCF73CF976
:103EC000796DFCF739F9B96DFCF736F9F96DFCF746
:103ED00033F9396EFCF730F96437193CB1D10C492C
:103EE000FCF7C0F90146094801603046FCF775F956
:103EF000E90788430499086007B0F0BD8813000003
:103F000088010020A4000020400200203C02002084
:103F10000000C84210B51E4C0D2020751D480068D9
:103F20001D494A6805C41D48006860600A20607326
:103F300048691B49083CFCF758F9A060194800780B
:103F4000FCF789FA20610020174903E04A60801CD1
:103F500016281CD0225C0B685B0608D40B685B0635
:103F600005D40B685B0602D40B685B06F3D54A6088
:103F7000221852780B685B06E8D40B685B06E5D420
:103F80000B685B06E2D40B685B06F3D5DEE710BD79
:103F900050050020380500205C040020F4030020B8
:103FA0000000A040D0030020003801400FB410B53D
:103FB00003A9044B044A029800F0EEF810BC08BCB8
:103FC00004B01847D9370008040000202021020C53
:103FD00001D010211046020A01D01046083902090A
:103FE00001D01046091F820801D01046891E4208E0
:103FF00001D0881E7047081A704702E008C8121FD7
:1040000008C1002AFAD170477047002001E001C1C1
:10401000121F002AFBD17047014908607047000059
:1040200008000020F0B51FB486B00998089A030D67
:104030000021024314D05148514A18185043051426
:104040001198012810981AD0281A401C00264D4FAC
:104050004D49009601910490002812DA444211E083
:104060001198012449A3012801D11098C143069851
:10407000119A84600360C26041600BB0F0BD4042A1
:10408000E4E70446210500203F4A001C514103910A
:10409000029012E0E00707D032463B4601990098B3
:1040A000FCF71EFC0191009032463B461046194633
:1040B000FCF716FC06460F466410002CEAD1049863
:1040C000039B0028029A0999089806DAFCF708FC75
:1040D000019B009AFCF704FC05E0FCF701F9019B49
:1040E000009AFCF7FDF804460E460022284BFCF728
:1040F0007FFC03D80020C043014607E00022254B87
:1041000020463146FCF73AFBFCF752FC102409E04C
:10411000002C0ADB0A220023FCF734FA079B30321A
:104120001A55641E02460A43F2D11122641C079BF1
:10413000121B1C19119B012B03D0012308430ED124
:104140000AE0084304D0112010900020119077E776
:104150001098151A6D1E0BE01098824202DD0023A4
:104160006D1C03E0824201DA00236D1E002BEED0AD
:10417000069811998260C16030C07EE701FCFFFFA4
:10418000104D0000000014400000F03F300000001F
:104190000000F0430000E03FFFB597B00646002561
:1041A00018E2252877D100242746FD49049400E031
:1041B0000443761C32780120203A90400842F7D11F
:1041C00030782A280ED00222307801463039092969
:1041D00016D804990A235943303940181443761CE1
:1041E0000490F1E7189802C804911890002904DAA5
:1041F0000120400304434842049002200443761CFB
:1042000030782E2814D1042004437078761C2A2894
:1042100009D11898761C80C8189009E00A214F43EC
:10422000303FC719761C3078014630390929F5D955
:1042300030786C2810D006DC4C281AD068280ED0B4
:104240006A2817D104E0742813D07A2812D110E01C
:104250000120400504430CE00121090501E0032190
:1042600009050C437178814203D10120000524180F
:10427000761C761C3078119066280BD013DC5828F9
:104280007DD009DC00287BD04528F6D04628F4D024
:1042900047281AD1A5E118E0632835D0642870D0EA
:1042A000652812D19DE170286CD008DC6728F1D018
:1042B00069287BD06E280DD06F2806D1BAE073280C
:1042C0002ED0752871D0782859D01A9A199990470C
:1042D0006D1C7EE16002400F022809D003280DD03A
:1042E0000428189801680DD00D60001D189070E129
:1042F0001898EA1701680D604A60F6E71898016897
:104300000D80F2E70D70F0E718986A460178117297
:10431000001D18900020507202A80090012005E0B6
:10432000189802C8189000200091C04361070DD56D
:10433000002101E00199491C0191B94212DA814240
:10434000F8DB009A515C0029F4D10BE0002101E078
:104350000199491C01918142FADB019A0099895C1B
:104360000029F5D1019904981A9B471A214638462D
:10437000199A00F097FA0199401945180BE04FE09F
:104380002CE113E04EE0009800990078491C009160
:104390001A9A199990470198401E0190401CF2D139
:1043A000214638461A9B199A10E137E00A2000216D
:1043B000009001916002410F022907D0189A01CAAA
:1043C0001892C2179446032908D00AE01898C01D15
:1043D000C108C90005C91891944607E000B2C21788
:1043E0009446042902D140B2C1178C46002261468E
:1043F000944506DA0A460021404291418C462D211F
:1044000002E0210504D52B216A461173012103E046
:10441000E10701D02021F7E7029155E00A200AE0E8
:10442000102008E010200090002104200443019196
:10443000082703E008200021019100906002410F4D
:10444000022907D0189A01CA18920022944603291B
:1044500008D008E01898C01DC108C90005C9189106
:10446000944603E080B2042900D1C0B20021029139
:10447000210729D51199702906D0009A1021019B96
:104480004A401A4305D00EE040216A4611730121CB
:1044900008E06146014306D030216A461173119944
:1044A000517302210291009A0821019B4A401A434C
:1044B0000AD16146014301D1610705D530216A4621
:1044C000117301217F1E02911199582904D035A141
:1044D0000E910DA90D910DE037A1F9E76146019B01
:1044E000009AFCF74FF80E9B8C469B5C0D9A521E6F
:1044F0000D92137061460143F0D10D9805A9081A79
:1045000020300190600703D501200004844300E0BF
:1045100001270198874201DD381A00E00020019947
:1045200000904118029809180498401A0490E0037A
:1045300006D421461A9B199A049800F0B3F945193C
:10454000002706E003A81A9AC05D199990476D1CD0
:104550007F1C02988742F5DBE0030CD521461A9BAD
:10456000199A049800F09EF9451904E01A9A30202F
:10457000199990476D1C0099481E00900029F5DCA0
:1045800008E00D980D990078491C0D911A9A199917
:1045900090476D1C0199481E01900029F1DC63E1F0
:1045A0000928010030313233343536373839616209
:1045B00063646566000000003031323334353637CD
:1045C00038394142434445460000000000F05AF9A2
:1045D0004519761C3078002800D0E2E528461BB04B
:1045E000F0BD600700D406271898C01DC108C90097
:1045F00048680A680831C30FDB071891190001D019
:104600009CA108E0210501D59BA104E0E10701D0B0
:104610009AA100E09AA1430011985B0810916528C7
:104620000CD006DC452809D046281DD0472841D1AA
:1046300041E0662818D067283CD13CE00021112FCA
:1046400001DB112000E0781C0191009008A911A85D
:10465000FFF7E8FC139905910021119A15927F1C30
:1046600012980197009150E00120C00703900120AB
:10467000019008A9009711A8FFF7D4FC139A149988
:1046800005920022119B009212981593059A0192AF
:10469000002901D0104602E0791C40180190381A18
:1046A00001D5019804E04042401E0090781C019022
:1046B000C01B029043E0012F00DA01270021112FD7
:1046C00001DD112000E038460191009008A911A8F1
:1046D000FFF7A8FC13990591119A002112981592E1
:1046E0000091019721070CD40599B94201DB01998A
:1046F00000E00191012904DD159A491E515C302921
:1047000006D0B84201DA011D05DA0121029115E057
:104710000199491EEDE7002805DC00994118009138
:104720000199091A03E0019A411C914200DD0191AF
:104730000099401A401C02900120C00703902007F6
:1047400006D402990198814202DB0020C043029006
:1047500000206946C87707AF012103980337C907CE
:10476000884224D0022011902B2012900398002818
:104770000CDA404203902D20129007E00A210398A2
:10478000FBF7B9FE30317F1E039039701199481E36
:1047900011900029F2DC03980028EFD1791E1298BD
:1047A00008703078202108404530BF1E387006A8B8
:1047B000C01BC01D039010980078002800D0012075
:1047C000019941180298C01709180398091804980C
:1047D000401A401E0490E00306D421461A9B199A01
:1047E000049800F05FF8451910980078002803D06D
:1047F0001A9A199990476D1CE00324D521461A9BFB
:10480000199A049800F04EF845191CE00098002809
:1048100007DB00990598884203DD1598405C1999DB
:1048200001E0199930201A9A904700986D1C401C9D
:1048300000900298401E0290002804D11A9A2E205F
:10484000199990476D1C0199481E01900029DDDCE3
:1048500005E038781A9A7F1C199990476D1C0399C6
:10486000481E03900029F4DC21461A9B199A0498EB
:10487000ACE600002D0000002B000000200000002E
:1048800000000000F8B5044600251E4617468804BF
:1048900004D405E039462020B0476D1C641EF9D5CC
:1048A0002846F8BDFFB50446002581B01E46C80362
:1048B00001D5302700E02027880404D505E03846DC
:1048C0000399B0476D1C641EF9D5284605B0F0BDAC
:1048D00010B5044601E0FEF77FFF2078641C034911
:1048E0000028F8D10A20FEF777FF10BD0400002051
:1048F00070B50546FBF7B7FE41000446FF204908A6
:10490000C005411AC90F07D069004908401AC00FF5
:1049100002D10120FFF780FB204670BD000000009F
:104920000000000000000000000000000000000087
:104930000000000000000000000000000100000076
:104940000200000003000000040000000600000058
:10495000070000000800000009000000000000003F
:104960000000000000000000000000000100000046
:104970000200000003000000040000001C01FF1FF3
:104980001C01FF1F1C01FF1F1C01FF1F1C01FF1F3B
:104990003001FF1F1C01FF1F1C01FF1F0000000052
:1049A00000000000000000000000000000366E0162
:1049B000000000000000000000000000636F655F61
:1049C0006275666665723A2025662C2025662C2065
:1049D00025662C2025662C2025662C2025662C207B
:1049E00025662C2025662C2025662C2025662C206B
:1049F00025662C2025662C2025662C2025662C205B
:104A000025662C2025660D0A006361705F6275665D
:104A10006665723A2025662C2025662C2025662C9A
:104A20002025662C2025662C2025662C2025662C2A
:104A30002025662C2025662C2025662C2025662C1A
:104A40002025662C2025662C2025662C2025662C0A
:104A50002025660D0A000D0A466C61736820697393
:104A6000206E6F7420626C616E6B0D000D0A466CD7
:104A7000617368204572617365204572726F720DB3
:104A800000000000A84A00080000002040010000CB
:104A9000FA3F0008E84B00084001002058080000D9
:104AA0000A400008000000000000000000000000B4
:104AB0000000000057049805080205011580000059
:104AC00000366E011F2F4F8F010204080000803F47
:104AD0000000803F0000803F0000803F0000803FDA
:104AE0000000803F0000803F0000803F0000803FCA
:104AF0000000803F0000803F0000803F0000803FBA
:104B00000000803F0000803F0000803F78E65C416D
:104B1000FA7F4641E0B344416C244341E0685C4184
:104B2000EA294641DDC344413EFF4441B9CF5841E3
:104B300011DB4041555241412FFE3F41A7535E4199
:104B4000484C474127BD45412CAD4641640000001B
:104B5000FF3C5F407C4801408E91FE3FEB5401409A
:104B600005F90C400D400E400F401483160F17003E
:104B700019061A061B001C001D021E081F2020809B
:104B800021032203230324032500260027002800F5
:104B900029002A802B812C812D812E812FFF3041ED
:104BA0003184321E3384341E3584361E3784381ED9
:104BB00039003A003B003C0049424A0F4B424C0F3F
:104BC0004D424E0F4F42500F5142520F5342540F1D
:104BD0005542560F5742580F650066006707680137
:084BE0000100000004000000C8
:04000005080000C12E
:00000001FF
